{
  "address": "0x0DCd1Bf9A1b36cE34237eEaFef220932846BCD82",
  "abi": [
    {
      "inputs": [
        {
          "internalType": "address",
          "name": "_implementation",
          "type": "address"
        }
      ],
      "stateMutability": "nonpayable",
      "type": "constructor"
    },
    {
      "inputs": [],
      "name": "FailedDeployment",
      "type": "error"
    },
    {
      "inputs": [
        {
          "internalType": "uint256",
          "name": "balance",
          "type": "uint256"
        },
        {
          "internalType": "uint256",
          "name": "needed",
          "type": "uint256"
        }
      ],
      "name": "InsufficientBalance",
      "type": "error"
    },
    {
      "inputs": [],
      "name": "InvalidImplementation",
      "type": "error"
    },
    {
      "inputs": [],
      "name": "InvalidPeriod",
      "type": "error"
    },
    {
      "inputs": [],
      "name": "InvalidThreshold",
      "type": "error"
    },
    {
      "inputs": [],
      "name": "InvalidWithdrawalAddress",
      "type": "error"
    },
    {
      "anonymous": false,
      "inputs": [
        {
          "indexed": true,
          "internalType": "address",
          "name": "owner",
          "type": "address"
        },
        {
          "indexed": false,
          "internalType": "address",
          "name": "account",
          "type": "address"
        }
      ],
      "name": "AccountCreated",
      "type": "event"
    },
    {
      "anonymous": false,
      "inputs": [
        {
          "indexed": true,
          "internalType": "address",
          "name": "clone",
          "type": "address"
        }
      ],
      "name": "CloneCreated",
      "type": "event"
    },
    {
      "anonymous": false,
      "inputs": [
        {
          "indexed": true,
          "internalType": "address",
          "name": "clone",
          "type": "address"
        }
      ],
      "name": "InitializationStarted",
      "type": "event"
    },
    {
      "anonymous": false,
      "inputs": [
        {
          "indexed": true,
          "internalType": "address",
          "name": "clone",
          "type": "address"
        },
        {
          "indexed": false,
          "internalType": "uint256",
          "name": "period",
          "type": "uint256"
        }
      ],
      "name": "PeriodSet",
      "type": "event"
    },
    {
      "anonymous": false,
      "inputs": [
        {
          "indexed": true,
          "internalType": "address",
          "name": "clone",
          "type": "address"
        },
        {
          "indexed": false,
          "internalType": "address",
          "name": "stakeholder",
          "type": "address"
        },
        {
          "indexed": false,
          "internalType": "uint256",
          "name": "share",
          "type": "uint256"
        }
      ],
      "name": "StakeholderAdded",
      "type": "event"
    },
    {
      "anonymous": false,
      "inputs": [
        {
          "indexed": true,
          "internalType": "address",
          "name": "clone",
          "type": "address"
        },
        {
          "indexed": false,
          "internalType": "uint256",
          "name": "threshold",
          "type": "uint256"
        }
      ],
      "name": "ThresholdSet",
      "type": "event"
    },
    {
      "inputs": [
        {
          "internalType": "uint256",
          "name": "threshold",
          "type": "uint256"
        },
        {
          "internalType": "uint256",
          "name": "period",
          "type": "uint256"
        },
        {
          "internalType": "address",
          "name": "withdrawalAddress",
          "type": "address"
        }
      ],
      "name": "createAccount",
      "outputs": [
        {
          "internalType": "address",
          "name": "",
          "type": "address"
        }
      ],
      "stateMutability": "nonpayable",
      "type": "function"
    },
    {
      "inputs": [
        {
          "internalType": "address",
          "name": "owner",
          "type": "address"
        }
      ],
      "name": "getAccounts",
      "outputs": [
        {
          "internalType": "address[]",
          "name": "",
          "type": "address[]"
        }
      ],
      "stateMutability": "view",
      "type": "function"
    },
    {
      "inputs": [],
      "name": "implementation",
      "outputs": [
        {
          "internalType": "address",
          "name": "",
          "type": "address"
        }
      ],
      "stateMutability": "view",
      "type": "function"
    },
    {
      "inputs": [
        {
          "internalType": "address",
          "name": "owner",
          "type": "address"
        },
        {
          "internalType": "uint256",
          "name": "",
          "type": "uint256"
        }
      ],
      "name": "ownerAccounts",
      "outputs": [
        {
          "internalType": "address",
          "name": "accounts",
          "type": "address"
        }
      ],
      "stateMutability": "view",
      "type": "function"
    }
  ],
  "transactionHash": "0x2cd21558c55adcbb45b1dc1ca91fd69b053fe1dc27aaf6fb8d7da386f2dfadff",
  "args": [
    "0xA51c1fc2f0D1a1b8494Ed1FE312d7C3a78Ed91C0"
  ],
  "numDeployments": 1,
  "solcInputHash": "2ad10510f9db5dc3d260a2d41105a6c2",
  "bytecode": "0x60a060405234801561001057600080fd5b50604051610c2f380380610c2f83398101604081905261002f91610067565b6001600160a01b0381166100565760405163340aafcd60e11b815260040160405180910390fd5b6001600160a01b0316608052610097565b60006020828403121561007957600080fd5b81516001600160a01b038116811461009057600080fd5b9392505050565b608051610b776100b860003960008181607f01526101c50152610b776000f3fe608060405234801561001057600080fd5b506004361061004c5760003560e01c80633100ceb5146100515780635c60da1b1461007a578063832e7809146100b9578063b8647e39146100cc575b600080fd5b61006461005f366004610849565b6100df565b6040516100719190610864565b60405180910390f35b6100a17f000000000000000000000000000000000000000000000000000000000000000081565b6040516001600160a01b039091168152602001610071565b6100a16100c73660046108b1565b610153565b6100a16100da3660046108e6565b61074c565b6001600160a01b0381166000908152602081815260409182902080548351818402810184019094528084526060939283018282801561014757602002820191906000526020600020905b81546001600160a01b03168152600190910190602001808311610129575b50505050509050919050565b6000836000036101765760405163aabd5a0960e01b815260040160405180910390fd5b82600003610197576040516302e8f35960e31b815260040160405180910390fd5b6001600160a01b0382166101be57604051634261081360e11b815260040160405180910390fd5b60006101e97f0000000000000000000000000000000000000000000000000000000000000000610784565b6040519091506001600160a01b038216907fbe2f3d28fdeb5839123d65fd47ec2f5915c715d2b527b9e229123706fdecfc8590600090a260405163189acdbd60e31b81523360048201526001600160a01b0382169063c4d66de890602401600060405180830381600087803b15801561026157600080fd5b505af1925050508015610272575060015b6103275761027e610910565b806308c379a0036102dd5750610292610967565b8061029d57506102df565b806040516020016102ae9190610a15565b60408051601f198184030181529082905262461bcd60e51b82526102d491600401610a53565b60405180910390fd5b505b60405162461bcd60e51b815260206004820181905260248201527f4661696c656420746f20696e697469616c697a6520286e6f20726561736f6e2960448201526064016102d4565b6040516001600160a01b038216907f0bd69566d41c5c41966f70f28da8a26cbf201dd4785d1b7da3f66c5c5096f13e90600090a2604051632582ff8160e21b8152600481018690526001600160a01b0382169063960bfe0490602401600060405180830381600087803b15801561039d57600080fd5b505af19250505080156103ae575060015b610440576103ba610910565b806308c379a0036103ea57506103ce610967565b806103d957506103ec565b806040516020016102ae9190610a86565b505b60405162461bcd60e51b815260206004820152602360248201527f4661696c656420746f20736574207468726573686f6c6420286e6f20726561736044820152626f6e2960e81b60648201526084016102d4565b806001600160a01b03167ff7e18aa0532694077d6fc7df02e85d86b91ba964f958d1949d45c5776d36eb6e8660405161047b91815260200190565b60405180910390a26040516380a79c5360e01b8152600481018590526001600160a01b038216906380a79c5390602401600060405180830381600087803b1580156104c557600080fd5b505af19250505080156104d6575060015b61055c576104e2610910565b806308c379a00361051257506104f6610967565b806105015750610514565b806040516020016102ae9190610acb565b505b60405162461bcd60e51b815260206004820181905260248201527f4661696c656420746f2073657420706572696f6420286e6f20726561736f6e2960448201526064016102d4565b806001600160a01b03167f09a388ec24176e675d9fd765f5fb4bd0cf32d2df3f7adab3b2d449ab1cea6f648560405161059791815260200190565b60405180910390a2604051634d76189760e11b81526001600160a01b03848116600483015260646024830152821690639aec312e90604401600060405180830381600087803b1580156105e957600080fd5b505af19250505080156105fa575060015b61068e57610606610910565b806308c379a003610636575061061a610967565b806106255750610638565b806040516020016102ae9190610afc565b505b60405162461bcd60e51b815260206004820152602560248201527f4661696c656420746f20616464207374616b65686f6c64657220286e6f20726560448201526461736f6e2960d81b60648201526084016102d4565b604080516001600160a01b038581168252606460208301528316917f3f8907752a0705baacda2a81db774eafdadcda1a941dde8d948882e4fce1d429910160405180910390a23360008181526020818152604080832080546001810182559084529282902090920180546001600160a01b0319166001600160a01b03861690811790915591519182527fac631f3001b55ea1509cf3d7e74898f85392a61a76e8149181ae1259622dabc8910160405180910390a290505b9392505050565b6000602052816000526040600020818154811061076857600080fd5b6000918252602090912001546001600160a01b03169150829050565b6000610791826000610797565b92915050565b6000814710156107c35760405163cf47918160e01b8152476004820152602481018390526044016102d4565b763d602d80600a3d3981f3363d3d373d3d3d363d730000008360601b60e81c176000526e5af43d82803e903d91602b57fd5bf38360781b176020526037600983f090506001600160a01b0381166107915760405163b06ebf3d60e01b815260040160405180910390fd5b80356001600160a01b038116811461084457600080fd5b919050565b60006020828403121561085b57600080fd5b6107458261082d565b6020808252825182820181905260009190848201906040850190845b818110156108a55783516001600160a01b031683529284019291840191600101610880565b50909695505050505050565b6000806000606084860312156108c657600080fd5b83359250602084013591506108dd6040850161082d565b90509250925092565b600080604083850312156108f957600080fd5b6109028361082d565b946020939093013593505050565b600060033d11156109295760046000803e5060005160e01c5b90565b601f8201601f1916810167ffffffffffffffff8111828210171561096057634e487b7160e01b600052604160045260246000fd5b6040525050565b600060443d10156109755790565b6040516003193d81016004833e81513d67ffffffffffffffff81602484011181841117156109a557505050505090565b82850191508151818111156109bd5750505050505090565b843d87010160208285010111156109d75750505050505090565b6109e66020828601018761092c565b509095945050505050565b60005b83811015610a0c5781810151838201526020016109f4565b50506000910152565b7502330b4b632b2103a379034b734ba34b0b634bd329d160551b815260008251610a468160168501602087016109f1565b9190910160160192915050565b6020815260008251806020840152610a728160408501602087016109f1565b601f01601f19169190910160400192915050565b7f4661696c656420746f20736574207468726573686f6c643a2000000000000000815260008251610abe8160198501602087016109f1565b9190910160190192915050565b7502330b4b632b2103a379039b2ba103832b934b7b21d160551b815260008251610a468160168501602087016109f1565b7f4661696c656420746f20616464207374616b65686f6c6465723a200000000000815260008251610b3481601b8501602087016109f1565b91909101601b019291505056fea264697066735822122021bf17b107de0e96ab7a68477eb61794e80b828e7990d1c35b8c15384c9097ef64736f6c63430008180033",
  "devdoc": {
    "errors": {
      "FailedDeployment()": [
        {
          "details": "The deployment failed."
        }
      ],
      "InsufficientBalance(uint256,uint256)": [
        {
          "details": "The ETH balance of the account is not enough to perform the operation."
        }
      ]
    },
    "kind": "dev",
    "methods": {},
    "version": 1
  },
  "userdoc": {
    "kind": "user",
    "methods": {},
    "version": 1
  },
  "storageLayout": {
    "storage": [
      {
        "astId": 1116,
        "contract": "contracts/SmartAccountFactory.sol:SmartAccountFactory",
        "label": "ownerAccounts",
        "offset": 0,
        "slot": "0",
        "type": "t_mapping(t_address,t_array(t_address)dyn_storage)"
      }
    ],
    "types": {
      "t_address": {
        "encoding": "inplace",
        "label": "address",
        "numberOfBytes": "20"
      },
      "t_array(t_address)dyn_storage": {
        "base": "t_address",
        "encoding": "dynamic_array",
        "label": "address[]",
        "numberOfBytes": "32"
      },
      "t_mapping(t_address,t_array(t_address)dyn_storage)": {
        "encoding": "mapping",
        "key": "t_address",
        "label": "mapping(address => address[])",
        "numberOfBytes": "32",
        "value": "t_array(t_address)dyn_storage"
      }
    }
  }
}