{
  "address": "0x5FbDB2315678afecb367f032d93F642f64180aa3",
  "abi": [
    {
      "inputs": [],
      "stateMutability": "nonpayable",
      "type": "constructor"
    },
    {
      "inputs": [],
      "name": "AlreadyClaimed",
      "type": "error"
    },
    {
      "inputs": [],
      "name": "ChangeNotReady",
      "type": "error"
    },
    {
      "inputs": [],
      "name": "ChangePending",
      "type": "error"
    },
    {
      "inputs": [],
      "name": "DuplicateStakeholder",
      "type": "error"
    },
    {
      "inputs": [],
      "name": "ETHTransferFailed",
      "type": "error"
    },
    {
      "inputs": [],
      "name": "EnforcedPause",
      "type": "error"
    },
    {
      "inputs": [],
      "name": "ExpectedPause",
      "type": "error"
    },
    {
      "inputs": [],
      "name": "InvalidInitialization",
      "type": "error"
    },
    {
      "inputs": [],
      "name": "InvalidPayoutAddress",
      "type": "error"
    },
    {
      "inputs": [],
      "name": "InvalidPeriod",
      "type": "error"
    },
    {
      "inputs": [],
      "name": "InvalidSellerOverflowBps",
      "type": "error"
    },
    {
      "inputs": [],
      "name": "InvalidStakeholder",
      "type": "error"
    },
    {
      "inputs": [],
      "name": "InvalidThreshold",
      "type": "error"
    },
    {
      "inputs": [],
      "name": "NameTooLong",
      "type": "error"
    },
    {
      "inputs": [],
      "name": "NoChangePending",
      "type": "error"
    },
    {
      "inputs": [],
      "name": "NotInitialized",
      "type": "error"
    },
    {
      "inputs": [],
      "name": "NotInitializing",
      "type": "error"
    },
    {
      "inputs": [],
      "name": "NothingToWithdraw",
      "type": "error"
    },
    {
      "inputs": [
        {
          "internalType": "address",
          "name": "owner",
          "type": "address"
        }
      ],
      "name": "OwnableInvalidOwner",
      "type": "error"
    },
    {
      "inputs": [
        {
          "internalType": "address",
          "name": "account",
          "type": "address"
        }
      ],
      "name": "OwnableUnauthorizedAccount",
      "type": "error"
    },
    {
      "inputs": [],
      "name": "PeriodNotClosed",
      "type": "error"
    },
    {
      "inputs": [],
      "name": "PeriodNotYetOver",
      "type": "error"
    },
    {
      "inputs": [],
      "name": "ReentrancyGuardReentrantCall",
      "type": "error"
    },
    {
      "inputs": [
        {
          "internalType": "address",
          "name": "token",
          "type": "address"
        }
      ],
      "name": "SafeERC20FailedOperation",
      "type": "error"
    },
    {
      "inputs": [],
      "name": "SharesDoNotSumTo100",
      "type": "error"
    },
    {
      "inputs": [],
      "name": "TooManyStakeholders",
      "type": "error"
    },
    {
      "inputs": [],
      "name": "WrongMode",
      "type": "error"
    },
    {
      "inputs": [],
      "name": "WrongToken",
      "type": "error"
    },
    {
      "anonymous": false,
      "inputs": [
        {
          "indexed": false,
          "internalType": "string",
          "name": "newName",
          "type": "string"
        }
      ],
      "name": "AccountNameUpdated",
      "type": "event"
    },
    {
      "anonymous": false,
      "inputs": [
        {
          "indexed": true,
          "internalType": "address",
          "name": "buyer",
          "type": "address"
        },
        {
          "indexed": true,
          "internalType": "uint256",
          "name": "periodId",
          "type": "uint256"
        },
        {
          "indexed": false,
          "internalType": "uint256",
          "name": "amount",
          "type": "uint256"
        }
      ],
      "name": "BuyerRedistributionClaimed",
      "type": "event"
    },
    {
      "anonymous": false,
      "inputs": [],
      "name": "EconomicParamsChangeCancelled",
      "type": "event"
    },
    {
      "anonymous": false,
      "inputs": [
        {
          "indexed": false,
          "internalType": "uint256",
          "name": "threshold",
          "type": "uint256"
        },
        {
          "indexed": false,
          "internalType": "uint256",
          "name": "sellerOverflowBps",
          "type": "uint256"
        }
      ],
      "name": "EconomicParamsChangeExecuted",
      "type": "event"
    },
    {
      "anonymous": false,
      "inputs": [
        {
          "indexed": false,
          "internalType": "uint256",
          "name": "newThreshold",
          "type": "uint256"
        },
        {
          "indexed": false,
          "internalType": "uint256",
          "name": "newSellerOverflowBps",
          "type": "uint256"
        },
        {
          "indexed": false,
          "internalType": "uint256",
          "name": "executableAt",
          "type": "uint256"
        }
      ],
      "name": "EconomicParamsChangeQueued",
      "type": "event"
    },
    {
      "anonymous": false,
      "inputs": [
        {
          "indexed": false,
          "internalType": "uint256",
          "name": "amount",
          "type": "uint256"
        }
      ],
      "name": "ForwardFailed",
      "type": "event"
    },
    {
      "anonymous": false,
      "inputs": [
        {
          "indexed": true,
          "internalType": "address",
          "name": "to",
          "type": "address"
        },
        {
          "indexed": false,
          "internalType": "uint256",
          "name": "amount",
          "type": "uint256"
        }
      ],
      "name": "ForwardedToSeller",
      "type": "event"
    },
    {
      "anonymous": false,
      "inputs": [
        {
          "indexed": false,
          "internalType": "uint64",
          "name": "version",
          "type": "uint64"
        }
      ],
      "name": "Initialized",
      "type": "event"
    },
    {
      "anonymous": false,
      "inputs": [
        {
          "indexed": true,
          "internalType": "address",
          "name": "previousOwner",
          "type": "address"
        },
        {
          "indexed": true,
          "internalType": "address",
          "name": "newOwner",
          "type": "address"
        }
      ],
      "name": "OwnershipTransferred",
      "type": "event"
    },
    {
      "anonymous": false,
      "inputs": [
        {
          "indexed": false,
          "internalType": "address",
          "name": "account",
          "type": "address"
        }
      ],
      "name": "Paused",
      "type": "event"
    },
    {
      "anonymous": false,
      "inputs": [
        {
          "indexed": true,
          "internalType": "address",
          "name": "from",
          "type": "address"
        },
        {
          "indexed": false,
          "internalType": "uint256",
          "name": "amount",
          "type": "uint256"
        },
        {
          "indexed": false,
          "internalType": "uint256",
          "name": "periodTotal",
          "type": "uint256"
        }
      ],
      "name": "PaymentReceived",
      "type": "event"
    },
    {
      "anonymous": false,
      "inputs": [],
      "name": "PayoutAddressChangeCancelled",
      "type": "event"
    },
    {
      "anonymous": false,
      "inputs": [
        {
          "indexed": true,
          "internalType": "address",
          "name": "newAddress",
          "type": "address"
        }
      ],
      "name": "PayoutAddressChangeExecuted",
      "type": "event"
    },
    {
      "anonymous": false,
      "inputs": [
        {
          "indexed": true,
          "internalType": "address",
          "name": "newAddress",
          "type": "address"
        },
        {
          "indexed": false,
          "internalType": "uint256",
          "name": "executableAt",
          "type": "uint256"
        }
      ],
      "name": "PayoutAddressChangeQueued",
      "type": "event"
    },
    {
      "anonymous": false,
      "inputs": [
        {
          "indexed": true,
          "internalType": "uint256",
          "name": "periodId",
          "type": "uint256"
        },
        {
          "indexed": false,
          "internalType": "uint256",
          "name": "closedAt",
          "type": "uint256"
        },
        {
          "indexed": false,
          "internalType": "uint256",
          "name": "totalIncome",
          "type": "uint256"
        },
        {
          "indexed": false,
          "internalType": "uint256",
          "name": "redistributionPot",
          "type": "uint256"
        }
      ],
      "name": "PeriodClosed",
      "type": "event"
    },
    {
      "anonymous": false,
      "inputs": [
        {
          "indexed": false,
          "internalType": "uint256",
          "name": "newDuration",
          "type": "uint256"
        }
      ],
      "name": "PeriodDurationQueued",
      "type": "event"
    },
    {
      "anonymous": false,
      "inputs": [
        {
          "indexed": false,
          "internalType": "uint256",
          "name": "newDuration",
          "type": "uint256"
        }
      ],
      "name": "PeriodDurationUpdated",
      "type": "event"
    },
    {
      "anonymous": false,
      "inputs": [
        {
          "indexed": false,
          "internalType": "uint256",
          "name": "amount",
          "type": "uint256"
        }
      ],
      "name": "SellerClaimed",
      "type": "event"
    },
    {
      "anonymous": false,
      "inputs": [
        {
          "indexed": true,
          "internalType": "address",
          "name": "stakeholder",
          "type": "address"
        },
        {
          "indexed": false,
          "internalType": "uint256",
          "name": "amount",
          "type": "uint256"
        }
      ],
      "name": "StakeholderClaimed",
      "type": "event"
    },
    {
      "anonymous": false,
      "inputs": [],
      "name": "StakeholdersChangeCancelled",
      "type": "event"
    },
    {
      "anonymous": false,
      "inputs": [
        {
          "components": [
            {
              "internalType": "address",
              "name": "recipient",
              "type": "address"
            },
            {
              "internalType": "uint16",
              "name": "shareBps",
              "type": "uint16"
            }
          ],
          "indexed": false,
          "internalType": "struct SmartAccount.Stakeholder[]",
          "name": "newStakeholders",
          "type": "tuple[]"
        }
      ],
      "name": "StakeholdersChangeExecuted",
      "type": "event"
    },
    {
      "anonymous": false,
      "inputs": [
        {
          "indexed": false,
          "internalType": "uint256",
          "name": "executableAt",
          "type": "uint256"
        }
      ],
      "name": "StakeholdersChangeQueued",
      "type": "event"
    },
    {
      "anonymous": false,
      "inputs": [
        {
          "indexed": false,
          "internalType": "address",
          "name": "account",
          "type": "address"
        }
      ],
      "name": "Unpaused",
      "type": "event"
    },
    {
      "inputs": [],
      "name": "BASIS_POINTS",
      "outputs": [
        {
          "internalType": "uint256",
          "name": "",
          "type": "uint256"
        }
      ],
      "stateMutability": "view",
      "type": "function"
    },
    {
      "inputs": [],
      "name": "CHANGE_TIMELOCK",
      "outputs": [
        {
          "internalType": "uint256",
          "name": "",
          "type": "uint256"
        }
      ],
      "stateMutability": "view",
      "type": "function"
    },
    {
      "inputs": [],
      "name": "MAX_NAME_LENGTH",
      "outputs": [
        {
          "internalType": "uint256",
          "name": "",
          "type": "uint256"
        }
      ],
      "stateMutability": "view",
      "type": "function"
    },
    {
      "inputs": [],
      "name": "MAX_PERIOD",
      "outputs": [
        {
          "internalType": "uint256",
          "name": "",
          "type": "uint256"
        }
      ],
      "stateMutability": "view",
      "type": "function"
    },
    {
      "inputs": [],
      "name": "MAX_STAKEHOLDERS",
      "outputs": [
        {
          "internalType": "uint256",
          "name": "",
          "type": "uint256"
        }
      ],
      "stateMutability": "view",
      "type": "function"
    },
    {
      "inputs": [],
      "name": "MIN_PERIOD",
      "outputs": [
        {
          "internalType": "uint256",
          "name": "",
          "type": "uint256"
        }
      ],
      "stateMutability": "view",
      "type": "function"
    },
    {
      "inputs": [],
      "name": "accountName",
      "outputs": [
        {
          "internalType": "string",
          "name": "",
          "type": "string"
        }
      ],
      "stateMutability": "view",
      "type": "function"
    },
    {
      "inputs": [],
      "name": "beneficiaryMode",
      "outputs": [
        {
          "internalType": "enum SmartAccount.BeneficiaryMode",
          "name": "",
          "type": "uint8"
        }
      ],
      "stateMutability": "view",
      "type": "function"
    },
    {
      "inputs": [
        {
          "internalType": "uint256",
          "name": "",
          "type": "uint256"
        },
        {
          "internalType": "address",
          "name": "",
          "type": "address"
        }
      ],
      "name": "buyerContributions",
      "outputs": [
        {
          "internalType": "uint256",
          "name": "",
          "type": "uint256"
        }
      ],
      "stateMutability": "view",
      "type": "function"
    },
    {
      "inputs": [
        {
          "internalType": "uint256",
          "name": "",
          "type": "uint256"
        },
        {
          "internalType": "address",
          "name": "",
          "type": "address"
        }
      ],
      "name": "buyerHasClaimed",
      "outputs": [
        {
          "internalType": "bool",
          "name": "",
          "type": "bool"
        }
      ],
      "stateMutability": "view",
      "type": "function"
    },
    {
      "inputs": [],
      "name": "cancelEconomicParamsChange",
      "outputs": [],
      "stateMutability": "nonpayable",
      "type": "function"
    },
    {
      "inputs": [],
      "name": "cancelPayoutAddressChange",
      "outputs": [],
      "stateMutability": "nonpayable",
      "type": "function"
    },
    {
      "inputs": [],
      "name": "cancelStakeholdersChange",
      "outputs": [],
      "stateMutability": "nonpayable",
      "type": "function"
    },
    {
      "inputs": [
        {
          "internalType": "bytes",
          "name": "",
          "type": "bytes"
        }
      ],
      "name": "checkUpkeep",
      "outputs": [
        {
          "internalType": "bool",
          "name": "upkeepNeeded",
          "type": "bool"
        },
        {
          "internalType": "bytes",
          "name": "performData",
          "type": "bytes"
        }
      ],
      "stateMutability": "view",
      "type": "function"
    },
    {
      "inputs": [
        {
          "internalType": "uint256",
          "name": "pid",
          "type": "uint256"
        }
      ],
      "name": "claimBuyerRedistribution",
      "outputs": [],
      "stateMutability": "nonpayable",
      "type": "function"
    },
    {
      "inputs": [
        {
          "internalType": "address",
          "name": "",
          "type": "address"
        }
      ],
      "name": "claimableByStakeholder",
      "outputs": [
        {
          "internalType": "uint256",
          "name": "",
          "type": "uint256"
        }
      ],
      "stateMutability": "view",
      "type": "function"
    },
    {
      "inputs": [],
      "name": "closePeriod",
      "outputs": [],
      "stateMutability": "nonpayable",
      "type": "function"
    },
    {
      "inputs": [],
      "name": "currentPeriodId",
      "outputs": [
        {
          "internalType": "uint256",
          "name": "",
          "type": "uint256"
        }
      ],
      "stateMutability": "view",
      "type": "function"
    },
    {
      "inputs": [
        {
          "internalType": "uint256",
          "name": "amount",
          "type": "uint256"
        }
      ],
      "name": "deposit",
      "outputs": [],
      "stateMutability": "nonpayable",
      "type": "function"
    },
    {
      "inputs": [],
      "name": "economicParamsChangeReadyAt",
      "outputs": [
        {
          "internalType": "uint256",
          "name": "",
          "type": "uint256"
        }
      ],
      "stateMutability": "view",
      "type": "function"
    },
    {
      "inputs": [],
      "name": "executeEconomicParamsChange",
      "outputs": [],
      "stateMutability": "nonpayable",
      "type": "function"
    },
    {
      "inputs": [],
      "name": "executePayoutAddressChange",
      "outputs": [],
      "stateMutability": "nonpayable",
      "type": "function"
    },
    {
      "inputs": [],
      "name": "executeStakeholdersChange",
      "outputs": [],
      "stateMutability": "nonpayable",
      "type": "function"
    },
    {
      "inputs": [],
      "name": "getBalance",
      "outputs": [
        {
          "internalType": "uint256",
          "name": "",
          "type": "uint256"
        }
      ],
      "stateMutability": "view",
      "type": "function"
    },
    {
      "inputs": [
        {
          "internalType": "uint256",
          "name": "pid",
          "type": "uint256"
        },
        {
          "internalType": "address",
          "name": "buyer",
          "type": "address"
        }
      ],
      "name": "getBuyerContribution",
      "outputs": [
        {
          "internalType": "uint256",
          "name": "",
          "type": "uint256"
        }
      ],
      "stateMutability": "view",
      "type": "function"
    },
    {
      "inputs": [
        {
          "internalType": "address",
          "name": "stakeholder",
          "type": "address"
        }
      ],
      "name": "getClaimable",
      "outputs": [
        {
          "internalType": "uint256",
          "name": "",
          "type": "uint256"
        }
      ],
      "stateMutability": "view",
      "type": "function"
    },
    {
      "inputs": [],
      "name": "getPendingStakeholders",
      "outputs": [
        {
          "components": [
            {
              "internalType": "address",
              "name": "recipient",
              "type": "address"
            },
            {
              "internalType": "uint16",
              "name": "shareBps",
              "type": "uint16"
            }
          ],
          "internalType": "struct SmartAccount.Stakeholder[]",
          "name": "",
          "type": "tuple[]"
        }
      ],
      "stateMutability": "view",
      "type": "function"
    },
    {
      "inputs": [
        {
          "internalType": "uint256",
          "name": "pid",
          "type": "uint256"
        }
      ],
      "name": "getPeriodRedistributionInfo",
      "outputs": [
        {
          "internalType": "uint256",
          "name": "pot",
          "type": "uint256"
        },
        {
          "internalType": "uint256",
          "name": "totalContribs",
          "type": "uint256"
        }
      ],
      "stateMutability": "view",
      "type": "function"
    },
    {
      "inputs": [],
      "name": "getPeriodStatus",
      "outputs": [
        {
          "internalType": "uint256",
          "name": "id",
          "type": "uint256"
        },
        {
          "internalType": "uint256",
          "name": "start",
          "type": "uint256"
        },
        {
          "internalType": "uint256",
          "name": "end",
          "type": "uint256"
        },
        {
          "internalType": "uint256",
          "name": "income",
          "type": "uint256"
        },
        {
          "internalType": "uint256",
          "name": "held",
          "type": "uint256"
        },
        {
          "internalType": "uint256",
          "name": "timeRemaining",
          "type": "uint256"
        }
      ],
      "stateMutability": "view",
      "type": "function"
    },
    {
      "inputs": [],
      "name": "getStakeholders",
      "outputs": [
        {
          "components": [
            {
              "internalType": "address",
              "name": "recipient",
              "type": "address"
            },
            {
              "internalType": "uint16",
              "name": "shareBps",
              "type": "uint16"
            }
          ],
          "internalType": "struct SmartAccount.Stakeholder[]",
          "name": "",
          "type": "tuple[]"
        }
      ],
      "stateMutability": "view",
      "type": "function"
    },
    {
      "inputs": [
        {
          "internalType": "address",
          "name": "_owner",
          "type": "address"
        },
        {
          "internalType": "address",
          "name": "_payoutAddress",
          "type": "address"
        },
        {
          "internalType": "uint256",
          "name": "_threshold",
          "type": "uint256"
        },
        {
          "internalType": "uint256",
          "name": "_sellerOverflowBps",
          "type": "uint256"
        },
        {
          "internalType": "uint256",
          "name": "_periodDuration",
          "type": "uint256"
        },
        {
          "internalType": "address",
          "name": "_token",
          "type": "address"
        },
        {
          "internalType": "enum SmartAccount.BeneficiaryMode",
          "name": "_beneficiaryMode",
          "type": "uint8"
        },
        {
          "components": [
            {
              "internalType": "address",
              "name": "recipient",
              "type": "address"
            },
            {
              "internalType": "uint16",
              "name": "shareBps",
              "type": "uint16"
            }
          ],
          "internalType": "struct SmartAccount.Stakeholder[]",
          "name": "_stakeholders",
          "type": "tuple[]"
        },
        {
          "internalType": "string",
          "name": "_accountName",
          "type": "string"
        }
      ],
      "name": "initialize",
      "outputs": [],
      "stateMutability": "nonpayable",
      "type": "function"
    },
    {
      "inputs": [],
      "name": "owner",
      "outputs": [
        {
          "internalType": "address",
          "name": "",
          "type": "address"
        }
      ],
      "stateMutability": "view",
      "type": "function"
    },
    {
      "inputs": [],
      "name": "pause",
      "outputs": [],
      "stateMutability": "nonpayable",
      "type": "function"
    },
    {
      "inputs": [],
      "name": "paused",
      "outputs": [
        {
          "internalType": "bool",
          "name": "",
          "type": "bool"
        }
      ],
      "stateMutability": "view",
      "type": "function"
    },
    {
      "inputs": [],
      "name": "payoutAddress",
      "outputs": [
        {
          "internalType": "address",
          "name": "",
          "type": "address"
        }
      ],
      "stateMutability": "view",
      "type": "function"
    },
    {
      "inputs": [],
      "name": "payoutAddressChangeReadyAt",
      "outputs": [
        {
          "internalType": "uint256",
          "name": "",
          "type": "uint256"
        }
      ],
      "stateMutability": "view",
      "type": "function"
    },
    {
      "inputs": [],
      "name": "pendingPayoutAddress",
      "outputs": [
        {
          "internalType": "address",
          "name": "",
          "type": "address"
        }
      ],
      "stateMutability": "view",
      "type": "function"
    },
    {
      "inputs": [],
      "name": "pendingPeriodDuration",
      "outputs": [
        {
          "internalType": "uint256",
          "name": "",
          "type": "uint256"
        }
      ],
      "stateMutability": "view",
      "type": "function"
    },
    {
      "inputs": [],
      "name": "pendingSellerOverflowBps",
      "outputs": [
        {
          "internalType": "uint256",
          "name": "",
          "type": "uint256"
        }
      ],
      "stateMutability": "view",
      "type": "function"
    },
    {
      "inputs": [],
      "name": "pendingThreshold",
      "outputs": [
        {
          "internalType": "uint256",
          "name": "",
          "type": "uint256"
        }
      ],
      "stateMutability": "view",
      "type": "function"
    },
    {
      "inputs": [
        {
          "internalType": "bytes",
          "name": "",
          "type": "bytes"
        }
      ],
      "name": "performUpkeep",
      "outputs": [],
      "stateMutability": "nonpayable",
      "type": "function"
    },
    {
      "inputs": [],
      "name": "periodDuration",
      "outputs": [
        {
          "internalType": "uint256",
          "name": "",
          "type": "uint256"
        }
      ],
      "stateMutability": "view",
      "type": "function"
    },
    {
      "inputs": [],
      "name": "periodIncome",
      "outputs": [
        {
          "internalType": "uint256",
          "name": "",
          "type": "uint256"
        }
      ],
      "stateMutability": "view",
      "type": "function"
    },
    {
      "inputs": [
        {
          "internalType": "uint256",
          "name": "",
          "type": "uint256"
        }
      ],
      "name": "periodRedistributionPot",
      "outputs": [
        {
          "internalType": "uint256",
          "name": "",
          "type": "uint256"
        }
      ],
      "stateMutability": "view",
      "type": "function"
    },
    {
      "inputs": [],
      "name": "periodStart",
      "outputs": [
        {
          "internalType": "uint256",
          "name": "",
          "type": "uint256"
        }
      ],
      "stateMutability": "view",
      "type": "function"
    },
    {
      "inputs": [
        {
          "internalType": "uint256",
          "name": "",
          "type": "uint256"
        }
      ],
      "name": "periodTotalContributions",
      "outputs": [
        {
          "internalType": "uint256",
          "name": "",
          "type": "uint256"
        }
      ],
      "stateMutability": "view",
      "type": "function"
    },
    {
      "inputs": [
        {
          "internalType": "uint256",
          "name": "newThreshold",
          "type": "uint256"
        },
        {
          "internalType": "uint256",
          "name": "newSellerOverflowBps",
          "type": "uint256"
        }
      ],
      "name": "queueEconomicParamsChange",
      "outputs": [],
      "stateMutability": "nonpayable",
      "type": "function"
    },
    {
      "inputs": [
        {
          "internalType": "address",
          "name": "newAddress",
          "type": "address"
        }
      ],
      "name": "queuePayoutAddressChange",
      "outputs": [],
      "stateMutability": "nonpayable",
      "type": "function"
    },
    {
      "inputs": [
        {
          "components": [
            {
              "internalType": "address",
              "name": "recipient",
              "type": "address"
            },
            {
              "internalType": "uint16",
              "name": "shareBps",
              "type": "uint16"
            }
          ],
          "internalType": "struct SmartAccount.Stakeholder[]",
          "name": "newStakeholders",
          "type": "tuple[]"
        }
      ],
      "name": "queueStakeholdersChange",
      "outputs": [],
      "stateMutability": "nonpayable",
      "type": "function"
    },
    {
      "inputs": [],
      "name": "redistributionHeld",
      "outputs": [
        {
          "internalType": "uint256",
          "name": "",
          "type": "uint256"
        }
      ],
      "stateMutability": "view",
      "type": "function"
    },
    {
      "inputs": [],
      "name": "renounceOwnership",
      "outputs": [],
      "stateMutability": "nonpayable",
      "type": "function"
    },
    {
      "inputs": [],
      "name": "sellerClaim",
      "outputs": [],
      "stateMutability": "nonpayable",
      "type": "function"
    },
    {
      "inputs": [],
      "name": "sellerClaimable",
      "outputs": [
        {
          "internalType": "uint256",
          "name": "",
          "type": "uint256"
        }
      ],
      "stateMutability": "view",
      "type": "function"
    },
    {
      "inputs": [],
      "name": "sellerOverflowBps",
      "outputs": [
        {
          "internalType": "uint256",
          "name": "",
          "type": "uint256"
        }
      ],
      "stateMutability": "view",
      "type": "function"
    },
    {
      "inputs": [],
      "name": "stakeholderClaim",
      "outputs": [],
      "stateMutability": "nonpayable",
      "type": "function"
    },
    {
      "inputs": [
        {
          "internalType": "uint256",
          "name": "",
          "type": "uint256"
        }
      ],
      "name": "stakeholders",
      "outputs": [
        {
          "internalType": "address",
          "name": "recipient",
          "type": "address"
        },
        {
          "internalType": "uint16",
          "name": "shareBps",
          "type": "uint16"
        }
      ],
      "stateMutability": "view",
      "type": "function"
    },
    {
      "inputs": [],
      "name": "stakeholdersChangeReadyAt",
      "outputs": [
        {
          "internalType": "uint256",
          "name": "",
          "type": "uint256"
        }
      ],
      "stateMutability": "view",
      "type": "function"
    },
    {
      "inputs": [],
      "name": "threshold",
      "outputs": [
        {
          "internalType": "uint256",
          "name": "",
          "type": "uint256"
        }
      ],
      "stateMutability": "view",
      "type": "function"
    },
    {
      "inputs": [],
      "name": "token",
      "outputs": [
        {
          "internalType": "address",
          "name": "",
          "type": "address"
        }
      ],
      "stateMutability": "view",
      "type": "function"
    },
    {
      "inputs": [
        {
          "internalType": "address",
          "name": "newOwner",
          "type": "address"
        }
      ],
      "name": "transferOwnership",
      "outputs": [],
      "stateMutability": "nonpayable",
      "type": "function"
    },
    {
      "inputs": [],
      "name": "unpause",
      "outputs": [],
      "stateMutability": "nonpayable",
      "type": "function"
    },
    {
      "inputs": [
        {
          "internalType": "string",
          "name": "newName",
          "type": "string"
        }
      ],
      "name": "updateAccountName",
      "outputs": [],
      "stateMutability": "nonpayable",
      "type": "function"
    },
    {
      "inputs": [
        {
          "internalType": "uint256",
          "name": "newDuration",
          "type": "uint256"
        }
      ],
      "name": "updatePeriodDuration",
      "outputs": [],
      "stateMutability": "nonpayable",
      "type": "function"
    },
    {
      "stateMutability": "payable",
      "type": "receive"
    }
  ],
  "transactionHash": "0x30434eb5084ebda251b925427b2acf3df49308166a76cb167dfe4b217fb5f123",
  "args": [],
  "numDeployments": 1,
  "solcInputHash": "c80a4531bc754bea5dbd10d862ec2581",
  "bytecode": "0x608080604052346100dd5760017f9b779b17422d0df92223018b32b4d1fa46e071723d6817e2486d003becc55f00557ff0c57e16840df040f15088dc2f81fe391c3923bec73e23a9662efc9c229c6a009081549060ff8260401c166100ce57506001600160401b036002600160401b031982821601610089575b604051612c809081620000e38239f35b6001600160401b031990911681179091556040519081527fc7f505b2f371ae2175ee4913f4499e1f2633a7b5936321eed1cdaeb6115181d290602090a1388080610079565b63f92ee8a960e01b8152600490fd5b600080fdfe6080806040526004361015610095575b50361561001b57600080fd5b610023612698565b61002b612732565b600080516020612b6b833981519152546001600160a01b039081161561008357600054166100715761005d343361288b565b6001600080516020612beb83398151915255005b604051635079ff7560e11b8152600490fd5b6040516321c4e35760e21b8152600490fd5b60003560e01c9081630215bcb5146122f05750806305f1220c146122d2578063094b08f41461225d5780630b8712c3146121d757806311e2e1751461199d57806312065fe0146121b4578063127509aa14611fe857806312f2c0f414611fca5780631b3c997c14611fac5780631d6b8b7214611f62578063295f71bd14611eed5780632ae4989a14611ecf578063319c3a5114611eb15780633f4ba83a14611e3a57806342cde4e814611e1c5780634585e33b14611c04578063507a7328146119e557806359649d051461199d5780635b8d02d7146119745780635c975abb1461194457806365e8f200146118e55780636e04ff0d14611848578063703119ea1461181c578063715018a6146117b2578063717cee7d1461174757806372d6e30c146116b1578063734566dd146116955780638456cb591461162e57806386074985146116125780638a90f160146114c05780638bef22d4146114455780638c9ea147146114185780638cfba2b114610d8a5780638da5cb5b146113e25780638ea677ad146113955780639020d2991461135c57806390c32c9d14610eec578063924e11e414610ece57806394b573b214610eb05780639546c64b14610e92578063988e659514610e74578063989d419714610dc4578063a583024b14610d8a578063a66cb95014610d33578063ad014b9514610c8f578063b470aade14610c71578063b699224714610bcd578063b6b55f2514610a36578063bbccf15414610a18578063bd925ee51461097d578063c0c6f0d4146107b1578063c5e57985146106dc578063c810b7fe146106bd578063c8e2c46314610656578063ccc73ca714610638578063cfeb1cc31461061a578063d72353ad146105fc578063e1f1c4a7146105df578063e95514a7146105b6578063eda4e6d614610598578063f2fde38b1461056d578063f854ef49146103855763fc0c546a14610357573861000f565b34610380576000366003190112610380576000546040516001600160a01b039091168152602090f35b600080fd5b3461038057602080600319360112610380576004356001600160401b038111610380576103b69036906004016123d6565b6103be61265f565b60ff60035460a01c16600281101561055757610545578015801561053b575b61052957601754610517576103f28183612785565b6103fa6125a9565b60005b818110610458576202a3004201804211610442576020817f44fe631d0abe5420493ad59b3cde2479808ba0e1f3486cf9dbfc27ce74bc750692601755604051908152a1005b634e487b7160e01b600052601160045260246000fd5b610463818385612576565b906016805492600160401b841015610501576001938481018084558110156104eb57876104c9916104e594600052600080516020612c2b833981519152019260018060a01b036104b282612586565b85546001600160a01b03191691161784550161259a565b815461ffff60a01b191660a09190911b61ffff60a01b16179055565b016103fd565b634e487b7160e01b600052603260045260246000fd5b634e487b7160e01b600052604160045260246000fd5b60405163518e4d5560e01b8152600490fd5b6040516347e7d79b60e11b8152600490fd5b50601481116103dd565b604051632a580d6d60e01b8152600490fd5b634e487b7160e01b600052602160045260246000fd5b346103805760203660031901126103805761059661058961232e565b61059161265f565b6125eb565b005b34610380576000366003190112610380576020600654604051908152f35b34610380576000366003190112610380576014546040516001600160a01b039091168152602090f35b346103805760003660031901126103805760206040516127108152f35b34610380576000366003190112610380576020601154604051908152f35b34610380576000366003190112610380576020600954604051908152f35b34610380576000366003190112610380576020600254604051908152f35b346103805760003660031901126103805761066f61265f565b601754156106ab5761067f6125a9565b60006017557fd4ad0da01b299ea5c54454c43c0aa5af9c15a64153f40f1b184af2695b085179600080a1005b604051634c4c8c4d60e11b8152600490fd5b346103805760003660031901126103805760206040516301e285008152f35b34610380576000366003190112610380576040516004546000826106ff8361245d565b9182825260209360019085600182169182600014610791575050600114610746575b5061072e925003836124b2565b610742604051928284938452830190612396565b0390f35b8491506004600052600080516020612bcb833981519152906000915b85831061077957505061072e935082010185610721565b80548389018501528794508693909201918101610762565b60ff19168582015261072e95151560051b85010192508791506107219050565b34610380576000366003190112610380576107ca61265f565b60175480156106ab57421061096b57600b8054600082558061093a575b50601680549060005b82811061088f57836108006125a9565b600060175560405160208082016020835283548091526040830193600052600080516020612b8b833981519152916000905b828210610861577fb0ffaabf37802c0ae2746fe369a5f85a8600ca9fcd445028a0b88c28369c7a2585870386a1005b83546001600160a01b038116875260a01c61ffff168682015260409095019460019384019390910190610832565b81548110156104eb578160005280600080516020612c2b8339815191520190845491600160401b831015610501576108cd6001938481018855612371565b610924578181036108e1575b5050016107f0565b815481546001600160a01b039091166001600160a01b0319821681178355925461ffff60a01b166001600160b01b031990911690921791909117905585806108d9565b634e487b7160e01b600052600060045260246000fd5b81600052600080516020612b8b833981519152908101905b81811061095f57506107e7565b60008155600101610952565b6040516301b3782160e21b8152600490fd5b346103805760203660031901126103805761099661232e565b61099e61265f565b6001600160a01b03168015610a065760155461051757806001600160601b0360a01b60145416176014556202a3004201804211610442576020817fb7c4ee8949bfa2703dd2266b2e448b35c10d9657c460fb028ffb5af1621971cc92601555604051908152a2005b6040516305ca16c960e51b8152600490fd5b34610380576000366003190112610380576020604051620151808152f35b34610380576020806003193601126103805760043590610a54612698565b610a5c612732565b6000546001600160a01b03168015610071578215610bbb576040516370a0823160e01b80825230600483015290938385602481865afa948515610b4a57600095610b8c575b50604051906323b872dd60e01b600052336004523060245260445283600060648180875af1600160005114811615610b6c575b81604052600060605215610b565750829060246040518094819382523060048301525afa918215610b4a57600092610b1a575b61005d610b148585612556565b3361288b565b90809250813d8311610b43575b610b3181836124b2565b81010312610380575181610b14610b07565b503d610b27565b6040513d6000823e3d90fd5b635274afe760e01b815260048101839052602490fd5b6001811516610b8257833b15153d151616610ad4565b503d6000823e3d90fd5b9094508381813d8311610bb4575b610ba481836124b2565b8101031261038057519385610aa1565b503d610b9a565b60405163aabd5a0960e01b8152600490fd5b3461038057600036600319011261038057600b546001600160401b0381116105015760209060405190610c0660208260051b01836124b2565b80825260208201600b600052600080516020612b8b833981519152936000915b838310610c3b57604051806107428782612406565b6001828192604051610c4c81612497565b61ffff8a54858060a01b038116835260a01c1683820152815201960192019194610c26565b34610380576000366003190112610380576020600754604051908152f35b34610380576000366003190112610380576016546001600160401b0381116105015760209060405190610cc860208260051b01836124b2565b808252602082016016600052600080516020612c2b833981519152936000915b838310610cfd57604051806107428782612406565b6001828192604051610d0e81612497565b61ffff8a54858060a01b038116835260a01c1683820152815201960192019194610ce8565b3461038057600036600319011261038057610d4c61265f565b601354156106ab576000601155600060125560006013557fd2c82870e1d903cacc7dff741d11ff61528859f0fdc9f40db3150cdab17e7ec0600080a1005b34610380576020366003190112610380576001600160a01b03610dab61232e565b16600052600c6020526020604060002054604051908152f35b3461038057600036600319011261038057610ddd612698565b60ff60035460a01c166002811015610557576105455733600052600c6020526040600020548015610e625733600052600c60205260006040812055610e22813361275d565b6040519081527f8f92977f54f0536733637bd7e448c3d498444474405fc0b1739033a8cc9f238060203392a26001600080516020612beb83398151915255005b604051630686827b60e51b8152600490fd5b34610380576000366003190112610380576020600554604051908152f35b34610380576000366003190112610380576020601854604051908152f35b34610380576000366003190112610380576020601354604051908152f35b34610380576000366003190112610380576020601754604051908152f35b346103805761012036600319011261038057610f0661232e565b610f0e612318565b60a4356001600160a01b038116810361038057600260c43510156103805760e4356001600160401b03811161038057610f4b9036906004016123d6565b929091610104356001600160401b03811161038057610f6e903690600401612344565b959093600080516020612c0b83398151915254956001600160401b038716158061134e575b60016001600160401b038916149081611344575b15908161133b575b506113295760016001600160401b0319881617600080516020612c0b8339815191525560ff8760401c16156112fc575b60443515610bbb57612710606435116112ea576001600160a01b03851615610a0657620151806084351080156112db575b6112c957606488116112b75760c4356112a8578015801561129e575b6105295761103a8183612785565b60005b8181106112475750505061105c905b611054612b3b565b610591612b3b565b611064612b3b565b600080546001600160a01b0319166001600160a01b03928316179055604435600155606435600255600380546001600160a81b031916929091169190911760c43560a01b60ff60a01b16179055608435600755426006556001600160401b038311610501576110d460045461245d565b601f81116111f4575b50600090601f841160011461117e5760ff939160009183611173575b50508160011b916000199060031b1c1916176004555b60401c161561111a57005b68ff000000000000000019600080516020612c0b8339815191525416600080516020612c0b833981519152557fc7f505b2f371ae2175ee4913f4499e1f2633a7b5936321eed1cdaeb6115181d2602060405160018152a1005b0135905084806110f9565b601f198416916004600052600080516020612bcb8339815191529260005b8181106111dc575091600193918660ff9794106111c2575b505050811b0160045561110f565b0135600019600384901b60f8161c191690558480806111b4565b9193602060018192878701358155019501920161119c565b6004600052600080516020612bcb833981519152601f850160051c8101916020861061123d575b601f0160051c01905b81811061123157506110dd565b60008155600101611224565b909150819061121b565b611252818385612576565b90600b54600160401b811015610501578060016112729201600b55612371565b92909261092457600192611298916104c9906020906001600160a01b036104b282612586565b0161103d565b506014811161102c565b90506105295761105c9061104c565b60405163680b6caf60e01b8152600490fd5b6040516302e8f35960e31b8152600490fd5b506301e2850060843511611010565b6040516362a69f5b60e11b8152600490fd5b68ffffffffffffffffff1987166801000000000000000117600080516020612c0b83398151915255610fdf565b60405163f92ee8a960e01b8152600490fd5b90501589610faf565b303b159150610fa7565b5060ff8760401c1615610f93565b3461038057602036600319011261038057600435600052600f60205260408060002054600e602052816000205482519182526020820152f35b34610380576040366003190112610380576113ae612318565b600435600052601060205260406000209060018060a01b0316600052602052602060ff604060002054166040519015158152f35b3461038057600036600319011261038057600080516020612b6b833981519152546040516001600160a01b039091168152602090f35b346103805760003660031901126103805760ff60035460a01c166040516002821015610557576020918152f35b346103805760003660031901126103805761145e61265f565b60155480156106ab57421061096b5760145460018060a01b038116906001600160601b0360a01b90828260035416176003551660145560006015557f0e956a9a38ad82e3078fdf035a99c6592f7785279bfbf64931ed7b4adecb6870600080a2005b346103805760208060031936011261038057600435906114de612698565b60ff60035460a01c1660028110156105575760010361054557600554821015611600578160005260108152604060002033600052815260ff604060002054166115ee5781600052600d815260406000203360005281526040600020548015610e625782600052600f825261158160406000205491600e8452604060002054926010855260406000203360005285526040600020600160ff19825416179055612563565b81156115d85704908115610e62577f44c7ecb59a736e91948899023d65cb0c46c674b2a7e338c58de5ab45249ae332906115bb833361275d565b6040519283523392a36001600080516020612beb83398151915255005b634e487b7160e01b600052601260045260246000fd5b604051630c8d9eab60e31b8152600490fd5b6040516311372d3560e11b8152600490fd5b3461038057600036600319011261038057602060405160648152f35b346103805760003660031901126103805761164761265f565b61164f612732565b600080516020612bab833981519152600160ff198254161790557f62e78cea01bee320cd4e420270b5ea74000d11b0c9f74754ebdbfc544b05a2586020604051338152a1005b3461038057600036600319011261038057602060405160148152f35b34610380576040366003190112610380576004356024356116d061265f565b8115610bbb5761271081116112ea576013546105175781601155806012556202a30042019182421161044257611742837fd2bd29dfea4b46096d415e3580d3e1d3b11d1db4313f95f707c17e4940da89f694601355604051938493846040919493926060820195825260208201520152565b0390a1005b346103805760203660031901126103805760043561176361265f565b62015180811080156117a5575b6112c9576020817f7600c864ea2bba6f1ccbc79d2df5f03f3d8454f92e99f5dac6447f823d84021592601855604051908152a1005b506301e285008111611770565b34610380576000366003190112610380576117cb61265f565b600080516020612b6b83398151915280546001600160a01b031981169091556000906001600160a01b03167f8be0079c531659141344cd1fd0a4f28419497f9722a3daafe3b4186f6b6457e08280a3005b3461038057602036600319011261038057600435600052600e6020526020604060002054604051908152f35b34610380576020366003190112610380576001600160401b0360043581811161038057611879903690600401612344565b505061188a60065460075490612549565b421015806118cb575b604051916020830190811183821017610501576040526000825261074260405192839215158352604060208401526040830190612396565b5060ff600080516020612bab833981519152541615611893565b34610380576000366003190112610380576118fe61265f565b601554156106ab576001600160601b0360a01b6014541660145560006015557ff17bd457b60934595bfeeabc7ded6cafdb82ca74c4fe2ffdd70185580c9c96ee600080a1005b3461038057600036600319011261038057602060ff600080516020612bab83398151915254166040519015158152f35b34610380576000366003190112610380576003546040516001600160a01b039091168152602090f35b34610380576040366003190112610380576119b6612318565b600435600052600d60205260406000209060018060a01b03166000526020526020604060002054604051908152f35b34610380576000366003190112610380576119fe612698565b611a06612732565b611a1560065460075490612549565b4210611bf25760055460085460095460035460ff60a09160a01c16600281101561055757611bd05781611b00575b505b60185480611ac6575b506001830191828411610442577fad48006bd5fccb46a5e25e1cf4e091900c52fac23a2a557c4512e544e2dcef7d926005554260065560006008556000600955611aaf60405192839242846040919493926060820195825260208201520152565b0390a26001600080516020612beb83398151915255005b6020817fbd6eb9cf4d6e2902587c57e3163aaafdb46e3b3f2086bdfa75c790228930a9d7926007556000601855604051908152a183611a4e565b600b54600019810190811194600094909185875b6104425781871015611b8357906001611b798993612710611b4561ffff611b3a8d612371565b50548b1c168b612563565b0490611b508b612371565b50848060a01b03905416600052600c6020526040600020611b72838254612549565b9055612549565b9701969091611b14565b9092969350611b9491955084612556565b9161044257611ba290612371565b50546001600160a01b03166000908152600c6020526040902080549091611bc891612549565b905583611a43565b5082600052600f60205280604060002055600e60205281604060002055611a45565b604051633cfe6fd160e11b8152600490fd5b3461038057602080600319360112610380576004356001600160401b03811161038057611c35903690600401612344565b5050611c3f612698565b611c47612732565b611c5660065460075490612549565b4210611bf25760055490600854906009549060035460ff60a09160a01c16600281101561055757611dfc5782611d2e575b505b6018549081611cf5575b50506001830191828411610442577fad48006bd5fccb46a5e25e1cf4e091900c52fac23a2a557c4512e544e2dcef7d926005554260065560006008556000600955611aaf60405192839242846040919493926060820195825260208201520152565b817fbd6eb9cf4d6e2902587c57e3163aaafdb46e3b3f2086bdfa75c790228930a9d7926007556000601855604051908152a18380611c93565b939091600b5491600094600093600019810190811196875b6104425781861015611dae57906001611da48993612710611d7861ffff8e611d6d8d612371565b5054901c168a612563565b0490611d838a612371565b50848060a01b03905416600052600c8b526040600020611b72838254612549565b9601959091611d46565b90929750611dc191969395945085612556565b9161044257611dcf90612371565b50546001600160a01b03166000908152600c83526040902080549091611df491612549565b905584611c87565b5083600052600f815281604060002055600e815282604060002055611c89565b34610380576000366003190112610380576020600154604051908152f35b3461038057600036600319011261038057611e5361265f565b600080516020612bab833981519152805460ff811615611e9f5760ff191690557f5db9ee0a495bf2e6ff9c91a7834c1ba4fdd244a5e8aa4e537bd38aeae4b073aa6020604051338152a1005b604051638dfc202b60e01b8152600490fd5b34610380576000366003190112610380576020601554604051908152f35b34610380576000366003190112610380576020601254604051908152f35b346103805760003660031901126103805760c0600554600654600754611f138183612549565b60085490611f246009549385612549565b428111611f5157506000935b604051958652602086015260408501526060840152608083015260a0820152f35b611f5c904290612556565b93611f30565b3461038057602036600319011261038057600435600b5481101561038057611f8b604091612371565b505481516001600160a01b038216815260a09190911c61ffff166020820152f35b34610380576000366003190112610380576020600a54604051908152f35b346103805760003660031901126103805760206040516202a3008152f35b3461038057602080600319360112610380576001600160401b036004358181116103805761201a903690600401612344565b9161202361265f565b606483116112b75782116105015761203c60045461245d565b601f8111612162575b506000601f83116001146120ca57928280604093817fbfb945e83cdef07875741f61ef5257f0eae3fd751eb7a5624fc0d8617746e07c976000916120bf575b508260011b906000198460031b1c1916176004555b8451958487958652850152848401376000828201840152601f01601f19168101030190a1005b905081013588612084565b601f198316906004600052600080516020612bcb8339815191529160005b81811061214b57506040937fbfb945e83cdef07875741f61ef5257f0eae3fd751eb7a5624fc0d8617746e07c9693869384809410612131575b5050600182811b01600455612099565b820135600019600385901b60f8161c191690558780612121565b9192866001819286880135815501940192016120e8565b6004600052600080516020612bcb833981519152601f840160051c8101918585106121aa575b601f0160051c01905b81811061219e5750612045565b60008155600101612191565b9091508190612188565b346103805760003660031901126103805760206121cf6124d3565b604051908152f35b34610380576000366003190112610380576121f061265f565b6121f8612698565b600a548015610e62576000600a556003547f3148b8931f7c785856385576ee930749b732de301eea5cec00daa6a4fa71827d916020916122429082906001600160a01b0316612707565b604051908152a16001600080516020612beb83398151915255005b346103805760003660031901126103805761227661265f565b60135480156106ab57421061096b577fc8bd6e572cc92233fd2169b0844ed929fda0eee9d1bbe7d9f580830aebeb957d6040601154806001556012548060025560006011556000601255600060135582519182526020820152a1005b34610380576000366003190112610380576020600854604051908152f35b3461038057602036600319011261038057602090600435600052600f82526040600020548152f35b602435906001600160a01b038216820361038057565b600435906001600160a01b038216820361038057565b9181601f84011215610380578235916001600160401b038311610380576020838186019501011161038057565b600b548110156104eb57600b600052600080516020612b8b8339815191520190600090565b919082519283825260005b8481106123c2575050826000602080949584010152601f8019910116010190565b6020818301810151848301820152016123a1565b9181601f84011215610380578235916001600160401b038311610380576020808501948460061b01011161038057565b60208082019080835283518092528060408094019401926000905b83821061243057505050505090565b845180516001600160a01b0316875283015161ffff16868401529485019493820193600190910190612421565b90600182811c9216801561248d575b602083101461247757565b634e487b7160e01b600052602260045260246000fd5b91607f169161246c565b604081019081106001600160401b0382111761050157604052565b90601f801991011681019081106001600160401b0382111761050157604052565b6000546001600160a01b03168015612544576020602491604051928380926370a0823160e01b82523060048301525afa908115610b4a57600091612515575090565b90506020813d60201161253c575b81612530602093836124b2565b81010312610380575190565b3d9150612523565b504790565b9190820180921161044257565b9190820391821161044257565b8181029291811591840414171561044257565b91908110156104eb5760061b0190565b356001600160a01b03811681036103805790565b3561ffff811681036103805790565b601654600080601655816125bb575050565b6016600052600080516020612c2b833981519152918201915b8281106125e057505050565b8181556001016125d4565b6001600160a01b0390811690811561264657600080516020612b6b83398151915280546001600160a01b031981168417909155167f8be0079c531659141344cd1fd0a4f28419497f9722a3daafe3b4186f6b6457e0600080a3565b604051631e4fbdf760e01b815260006004820152602490fd5b600080516020612b6b833981519152546001600160a01b0316330361268057565b60405163118cdaa760e01b8152336004820152602490fd5b600080516020612beb83398151915260028154146126b65760029055565b604051633ee5aeb560e01b8152600490fd5b3d15612702573d906001600160401b03821161050157604051916126f6601f8201601f1916602001846124b2565b82523d6000602084013e565b606090565b600080809381935af16127186126c8565b501561272057565b60405163b12d13eb60e01b8152600490fd5b60ff600080516020612bab833981519152541661274b57565b60405163d93c066560e01b8152600490fd5b6000546001600160a01b031691908261277c5761277a9250612707565b565b61277a92612aba565b91906000906000905b8082106127b6575050612710919250036127a457565b604051636300e13f60e01b8152600490fd5b6001600160a01b03929091836127d56127d083868a612576565b612586565b16156128795761ffff90602090826127f8836127f284898d612576565b0161259a565b16156128795760018082019687831161044257875b878110612839575050506128329392916127f261282b92878b612576565b1690612549565b919061278e565b8a82806128586127d0858d6128526127d08c838a612576565b96612576565b1691161461286757820161280d565b604051630325237160e31b8152600490fd5b60405163098a402960e21b8152600490fd5b600854918260015480821015600014612a575750506128d36127106128b260025484612563565b04936128c8836128c28782612556565b92612549565b600855600954612549565b60095560ff60035460a01c1660028110156105575760011480612a4e575b612a18575b7f5677b5d4cf976ac32defbd95a6a5aaf0d1fee450a11fc26f3c11aae6e6c33d06604060085460018060a01b03948591835195865260208601521692a28161293c575050565b81816000541680156000146129d6575060008080809385600354165af16129616126c8565b50156129995760207f42279680e8c64e00cd75dcb95c8d5900ca4be9d22edc6ef1178f4419a7be7cf9916003541692604051908152a2565b506020816129ca7f2ae362161d8f4b1b2d67041a7dce6a62ed0898410055bcbabbab299fd2e0cfa593600a54612549565b600a55604051908152a1565b91612a0a6020927f42279680e8c64e00cd75dcb95c8d5900ca4be9d22edc6ef1178f4419a7be7cf994836003541690612aba565b6003541692604051908152a2565b600554600052600d602052604060002060018060a01b0383166000526020526040600020612a47828254612549565b90556128f6565b508015156128f1565b80612a628484612549565b11612a7a5750506128d381936128c883600092612549565b6128d391612a8791612556565b936128c8836128c2612a998883612556565b97612ab4612710612aac6002548c612563565b048092612549565b98612556565b60405163a9059cbb60e01b60009081526001600160a01b039384166004526024949094529260209060448180855af1600160005114811615612b1b575b8360405215612b0557505050565b635274afe760e01b835216600482015260249150fd5b6001811516612b3157813b15153d151616612af7565b833d6000823e3d90fd5b60ff600080516020612c0b8339815191525460401c1615612b5857565b604051631afcd79f60e31b8152600490fdfe9016d09d72d40fdae2fd8ceac6b6234c7706214fd39c1cd1e609a0528c1993000175b7a638427703f0dbe7bb9bbf987a2551717b34e79f33b5b1008d1fa01db9cd5ed15c6e187e77e9aee88184c21f4f2182ab5827cb3b7e07fbedcd63f033008a35acfbc15ff81a39ae7d344fd709f28e8600b4aa8c65c6b64bfe7fe36bd19b9b779b17422d0df92223018b32b4d1fa46e071723d6817e2486d003becc55f00f0c57e16840df040f15088dc2f81fe391c3923bec73e23a9662efc9c229c6a00d833147d7dc355ba459fc788f669e58cfaf9dc25ddcd0702e87d69c7b5124289a26469706673582212204114da16467a59cf89a291142f4b2bae99c60402329e3b26d47c8eb3d26843cb64736f6c63430008180033",
  "devdoc": {
    "author": "Capz Protocol",
    "details": "Architecture:   - EIP-1167 minimal proxy clone (initialized once, never re-initialized)   - Instant forward: payments are split and forwarded immediately   - Two redistribution modes: FIXED_LIST (defined stakeholders) or BUYERS (payers)   - Economic params and payout address are timelocked to protect stakeholders   - Gelato-compatible automation via checkUpkeep / performUpkeep",
    "errors": {
      "EnforcedPause()": [
        {
          "details": "The operation failed because the contract is paused."
        }
      ],
      "ExpectedPause()": [
        {
          "details": "The operation failed because the contract is not paused."
        }
      ],
      "InvalidInitialization()": [
        {
          "details": "The contract is already initialized."
        }
      ],
      "NotInitializing()": [
        {
          "details": "The contract is not initializing."
        }
      ],
      "OwnableInvalidOwner(address)": [
        {
          "details": "The owner is not a valid owner account. (eg. `address(0)`)"
        }
      ],
      "OwnableUnauthorizedAccount(address)": [
        {
          "details": "The caller account is not authorized to perform an operation."
        }
      ],
      "ReentrancyGuardReentrantCall()": [
        {
          "details": "Unauthorized reentrant call."
        }
      ],
      "SafeERC20FailedOperation(address)": [
        {
          "details": "An operation with an ERC-20 token failed."
        }
      ]
    },
    "events": {
      "Initialized(uint64)": {
        "details": "Triggered when the contract has been initialized or reinitialized."
      },
      "Paused(address)": {
        "details": "Emitted when the pause is triggered by `account`."
      },
      "Unpaused(address)": {
        "details": "Emitted when the pause is lifted by `account`."
      }
    },
    "kind": "dev",
    "methods": {
      "claimBuyerRedistribution(uint256)": {
        "details": "Intentionally NOT whenNotPaused — earned funds remain accessible.",
        "params": {
          "pid": "The period ID to claim from (must be a closed period)"
        }
      },
      "closePeriod()": {
        "details": "Callable by anyone (owner, Gelato, keeper bots)."
      },
      "constructor": {
        "custom:oz-upgrades-unsafe-allow": "constructor"
      },
      "deposit(uint256)": {
        "params": {
          "amount": "Amount to pull from caller (credited amount may be less with FOT tokens)"
        }
      },
      "getPeriodStatus()": {
        "returns": {
          "end": "          Period end timestamp",
          "held": "         Redistribution held so far this period",
          "id": "           Current period ID",
          "income": "       Total income received this period",
          "start": "        Period start timestamp",
          "timeRemaining": "Seconds until period can be closed (0 if ready)"
        }
      },
      "initialize(address,address,uint256,uint256,uint256,address,uint8,(address,uint16)[],string)": {
        "params": {
          "_accountName": "Human-readable name",
          "_beneficiaryMode": "FIXED_LIST or BUYERS",
          "_owner": "The account owner",
          "_payoutAddress": "Address that receives seller's forwarded payments",
          "_periodDuration": "Period length in seconds",
          "_sellerOverflowBps": "Seller's marginal retention above threshold (0–10000)",
          "_stakeholders": "Stakeholder list (required for FIXED_LIST, must be empty for BUYERS)",
          "_threshold": "Soft cap per period (in token units)",
          "_token": "ERC20 token, or address(0) for ETH"
        }
      },
      "owner()": {
        "details": "Returns the address of the current owner."
      },
      "paused()": {
        "details": "Returns true if the contract is paused, and false otherwise."
      },
      "renounceOwnership()": {
        "details": "Leaves the contract without owner. It will not be possible to call `onlyOwner` functions. Can only be called by the current owner. NOTE: Renouncing ownership will leave the contract without an owner, thereby disabling any functionality that is only available to the owner."
      },
      "sellerClaim()": {
        "details": "Only accumulates if the payoutAddress rejected ETH. Owner recovers to current payoutAddress."
      },
      "stakeholderClaim()": {
        "details": "Intentionally NOT whenNotPaused — earned funds remain accessible."
      },
      "transferOwnership(address)": {
        "details": "Transfers ownership of the contract to a new account (`newOwner`). Can only be called by the current owner."
      }
    },
    "title": "SmartAccount",
    "version": 1
  },
  "userdoc": {
    "kind": "user",
    "methods": {
      "claimBuyerRedistribution(uint256)": {
        "notice": "Claim proportional redistribution for a buyer in a closed period."
      },
      "closePeriod()": {
        "notice": "Close the current period and settle redistribution."
      },
      "deposit(uint256)": {
        "notice": "Deposit ERC20 tokens. Fee-on-transfer safe."
      },
      "getPeriodStatus()": {
        "notice": "Full status of the current period."
      },
      "initialize(address,address,uint256,uint256,uint256,address,uint8,(address,uint16)[],string)": {
        "notice": "Initialize a new SmartAccount clone. Called once by the factory."
      },
      "sellerClaim()": {
        "notice": "Claim any ETH that failed to forward automatically."
      },
      "stakeholderClaim()": {
        "notice": "Claim accumulated redistribution for a FIXED_LIST stakeholder."
      }
    },
    "notice": "A non-extractive payment account that auto-forwards income below a threshold         directly to the seller, and holds everything above it for redistribution.",
    "version": 1
  },
  "storageLayout": {
    "storage": [
      {
        "astId": 2465,
        "contract": "contracts/SmartAccount.sol:SmartAccount",
        "label": "token",
        "offset": 0,
        "slot": "0",
        "type": "t_address"
      },
      {
        "astId": 2467,
        "contract": "contracts/SmartAccount.sol:SmartAccount",
        "label": "threshold",
        "offset": 0,
        "slot": "1",
        "type": "t_uint256"
      },
      {
        "astId": 2469,
        "contract": "contracts/SmartAccount.sol:SmartAccount",
        "label": "sellerOverflowBps",
        "offset": 0,
        "slot": "2",
        "type": "t_uint256"
      },
      {
        "astId": 2471,
        "contract": "contracts/SmartAccount.sol:SmartAccount",
        "label": "payoutAddress",
        "offset": 0,
        "slot": "3",
        "type": "t_address"
      },
      {
        "astId": 2474,
        "contract": "contracts/SmartAccount.sol:SmartAccount",
        "label": "beneficiaryMode",
        "offset": 20,
        "slot": "3",
        "type": "t_enum(BeneficiaryMode)2463"
      },
      {
        "astId": 2476,
        "contract": "contracts/SmartAccount.sol:SmartAccount",
        "label": "accountName",
        "offset": 0,
        "slot": "4",
        "type": "t_string_storage"
      },
      {
        "astId": 2478,
        "contract": "contracts/SmartAccount.sol:SmartAccount",
        "label": "currentPeriodId",
        "offset": 0,
        "slot": "5",
        "type": "t_uint256"
      },
      {
        "astId": 2480,
        "contract": "contracts/SmartAccount.sol:SmartAccount",
        "label": "periodStart",
        "offset": 0,
        "slot": "6",
        "type": "t_uint256"
      },
      {
        "astId": 2482,
        "contract": "contracts/SmartAccount.sol:SmartAccount",
        "label": "periodDuration",
        "offset": 0,
        "slot": "7",
        "type": "t_uint256"
      },
      {
        "astId": 2484,
        "contract": "contracts/SmartAccount.sol:SmartAccount",
        "label": "periodIncome",
        "offset": 0,
        "slot": "8",
        "type": "t_uint256"
      },
      {
        "astId": 2486,
        "contract": "contracts/SmartAccount.sol:SmartAccount",
        "label": "redistributionHeld",
        "offset": 0,
        "slot": "9",
        "type": "t_uint256"
      },
      {
        "astId": 2488,
        "contract": "contracts/SmartAccount.sol:SmartAccount",
        "label": "sellerClaimable",
        "offset": 0,
        "slot": "10",
        "type": "t_uint256"
      },
      {
        "astId": 2492,
        "contract": "contracts/SmartAccount.sol:SmartAccount",
        "label": "stakeholders",
        "offset": 0,
        "slot": "11",
        "type": "t_array(t_struct(Stakeholder)2460_storage)dyn_storage"
      },
      {
        "astId": 2496,
        "contract": "contracts/SmartAccount.sol:SmartAccount",
        "label": "claimableByStakeholder",
        "offset": 0,
        "slot": "12",
        "type": "t_mapping(t_address,t_uint256)"
      },
      {
        "astId": 2502,
        "contract": "contracts/SmartAccount.sol:SmartAccount",
        "label": "buyerContributions",
        "offset": 0,
        "slot": "13",
        "type": "t_mapping(t_uint256,t_mapping(t_address,t_uint256))"
      },
      {
        "astId": 2506,
        "contract": "contracts/SmartAccount.sol:SmartAccount",
        "label": "periodTotalContributions",
        "offset": 0,
        "slot": "14",
        "type": "t_mapping(t_uint256,t_uint256)"
      },
      {
        "astId": 2510,
        "contract": "contracts/SmartAccount.sol:SmartAccount",
        "label": "periodRedistributionPot",
        "offset": 0,
        "slot": "15",
        "type": "t_mapping(t_uint256,t_uint256)"
      },
      {
        "astId": 2516,
        "contract": "contracts/SmartAccount.sol:SmartAccount",
        "label": "buyerHasClaimed",
        "offset": 0,
        "slot": "16",
        "type": "t_mapping(t_uint256,t_mapping(t_address,t_bool))"
      },
      {
        "astId": 2518,
        "contract": "contracts/SmartAccount.sol:SmartAccount",
        "label": "pendingThreshold",
        "offset": 0,
        "slot": "17",
        "type": "t_uint256"
      },
      {
        "astId": 2520,
        "contract": "contracts/SmartAccount.sol:SmartAccount",
        "label": "pendingSellerOverflowBps",
        "offset": 0,
        "slot": "18",
        "type": "t_uint256"
      },
      {
        "astId": 2522,
        "contract": "contracts/SmartAccount.sol:SmartAccount",
        "label": "economicParamsChangeReadyAt",
        "offset": 0,
        "slot": "19",
        "type": "t_uint256"
      },
      {
        "astId": 2524,
        "contract": "contracts/SmartAccount.sol:SmartAccount",
        "label": "pendingPayoutAddress",
        "offset": 0,
        "slot": "20",
        "type": "t_address"
      },
      {
        "astId": 2526,
        "contract": "contracts/SmartAccount.sol:SmartAccount",
        "label": "payoutAddressChangeReadyAt",
        "offset": 0,
        "slot": "21",
        "type": "t_uint256"
      },
      {
        "astId": 2530,
        "contract": "contracts/SmartAccount.sol:SmartAccount",
        "label": "_pendingStakeholders",
        "offset": 0,
        "slot": "22",
        "type": "t_array(t_struct(Stakeholder)2460_storage)dyn_storage"
      },
      {
        "astId": 2532,
        "contract": "contracts/SmartAccount.sol:SmartAccount",
        "label": "stakeholdersChangeReadyAt",
        "offset": 0,
        "slot": "23",
        "type": "t_uint256"
      },
      {
        "astId": 2534,
        "contract": "contracts/SmartAccount.sol:SmartAccount",
        "label": "pendingPeriodDuration",
        "offset": 0,
        "slot": "24",
        "type": "t_uint256"
      }
    ],
    "types": {
      "t_address": {
        "encoding": "inplace",
        "label": "address",
        "numberOfBytes": "20"
      },
      "t_array(t_struct(Stakeholder)2460_storage)dyn_storage": {
        "base": "t_struct(Stakeholder)2460_storage",
        "encoding": "dynamic_array",
        "label": "struct SmartAccount.Stakeholder[]",
        "numberOfBytes": "32"
      },
      "t_bool": {
        "encoding": "inplace",
        "label": "bool",
        "numberOfBytes": "1"
      },
      "t_enum(BeneficiaryMode)2463": {
        "encoding": "inplace",
        "label": "enum SmartAccount.BeneficiaryMode",
        "numberOfBytes": "1"
      },
      "t_mapping(t_address,t_bool)": {
        "encoding": "mapping",
        "key": "t_address",
        "label": "mapping(address => bool)",
        "numberOfBytes": "32",
        "value": "t_bool"
      },
      "t_mapping(t_address,t_uint256)": {
        "encoding": "mapping",
        "key": "t_address",
        "label": "mapping(address => uint256)",
        "numberOfBytes": "32",
        "value": "t_uint256"
      },
      "t_mapping(t_uint256,t_mapping(t_address,t_bool))": {
        "encoding": "mapping",
        "key": "t_uint256",
        "label": "mapping(uint256 => mapping(address => bool))",
        "numberOfBytes": "32",
        "value": "t_mapping(t_address,t_bool)"
      },
      "t_mapping(t_uint256,t_mapping(t_address,t_uint256))": {
        "encoding": "mapping",
        "key": "t_uint256",
        "label": "mapping(uint256 => mapping(address => uint256))",
        "numberOfBytes": "32",
        "value": "t_mapping(t_address,t_uint256)"
      },
      "t_mapping(t_uint256,t_uint256)": {
        "encoding": "mapping",
        "key": "t_uint256",
        "label": "mapping(uint256 => uint256)",
        "numberOfBytes": "32",
        "value": "t_uint256"
      },
      "t_string_storage": {
        "encoding": "bytes",
        "label": "string",
        "numberOfBytes": "32"
      },
      "t_struct(Stakeholder)2460_storage": {
        "encoding": "inplace",
        "label": "struct SmartAccount.Stakeholder",
        "members": [
          {
            "astId": 2457,
            "contract": "contracts/SmartAccount.sol:SmartAccount",
            "label": "recipient",
            "offset": 0,
            "slot": "0",
            "type": "t_address"
          },
          {
            "astId": 2459,
            "contract": "contracts/SmartAccount.sol:SmartAccount",
            "label": "shareBps",
            "offset": 20,
            "slot": "0",
            "type": "t_uint16"
          }
        ],
        "numberOfBytes": "32"
      },
      "t_uint16": {
        "encoding": "inplace",
        "label": "uint16",
        "numberOfBytes": "2"
      },
      "t_uint256": {
        "encoding": "inplace",
        "label": "uint256",
        "numberOfBytes": "32"
      }
    }
  }
}